S0100000776167615F63616E2E73726563E3
S11300000C943B000C944D000C942A030C944D006A
S11300100C944D000C944D000C944D000C944D0028
S11300200C944D000C944D000C944D000C944D0018
S11300300C944D000C944D000C9473030C944D00DF
S11300400C944D000C944D000C944D000C944D00F8
S11300500C944D000C944D000C944D000C944D00E8
S11300600C944D000C944D0047034B034F03530372
S113007057035B035F0311241FBECFEFD8E0DEBF3D
S1130080CDBF21E0A0E0B1E001C01D92A931B207CB
S1130090E1F70E9457020C942A040C940000519A30
S11300A0529A399A389A3D9A3A983B9A3C9A0895CA
S11300B0882319F0813019F0089544980895449ADA
S11300C00895813049F028F0823049F0833051F0AE
S11300D008954198409808954198409A0895419A06
S11300E040980895419A409A0895813049F028F043
S11300F0823049F0833051F0089559985A98089500
S113010059985A9A0895599A5A980895599A5A9A00
S11301100895882319F0813019F0089545980895B9
S1130120459A0895439A089543980895CF92DF928B
S1130130EF92FF920F931F93CF93DF93C7E0D0E02A
S113014000E0EE24E394F12C0E949200329B08C05C
S1130150C7010C2E02C0880F991F0A94E2F7082BDE
S11301600E949400219780F7C7E0D0E010E0EE24CD
S1130170E394F12C0E949200329B08C0C7010C2E1C
S113018002C0880F991F0A94E2F7182B0E9494006A
S1130190219780F7C7E0D0E0F12CCC24C394D12C74
S11301A00E949200329B08C0C6010C2E02C0880F28
S11301B0991F0A94E2F7F82A0E949400219780F785
S11301C00E9492000E949400812F90E0A0E0B0E091
S11301D0902BBA2FA92F982F8827BC01CD016F2906
S11301E0DF91CF911F910F91FF90EF90DF90CF900F
S11301F008950E94200480EC0E9414040E942204AA
S11302000895CF93C82F0E94200483E00E94140411
S11302108C2F0E9414040E941904C82F0E942204E7
S11302208C2FCF910895EF92FF920F931F93CF934A
S1130230DF93C82F162F7A010E94200482E00E94C7
S113024014048C2F0E941404112371F0E70111503F
S1130250012F10E00F5F1F4F0E0D1F1D89910E948B
S11302601404C017D107D1F70E942204DF91CF9163
S11302701F910F91FF90EF900895CF93DF93D82FA4
S1130280C62F0E94200482E00E9414048D2F0E9435
S113029014048C2F0E9414040E942204DF91CF9135
S11302A008951F93CF93DF93182FD62FC42F0E9446
S11302B0200485E00E941404812F0E9414048D2FD1
S11302C00E9414048C2F0E9414040E942204DF91C3
S11302D0CF911F9108958230A9F028F4882341F02A
S11302E0813059F00895833091F08430A9F0089555
S11302F060E08FE00E943D01089560E28FE00E947B
S11303003D01089560E48FE00E943D01089560E698
S11303108FE00E943D01089560E88FE00E943D0156
S113032008958EE00E940101807E803469F028F4F3
S1130330882391F0803231F00DC0803639F0803856
S113034039F008C081E0089582E0089583E00895BB
S113035084E008958FEF089580E00895CF93DF93AC
S113036000D01F92CDB7DEB7813059F018F082303B
S113037079F013C087E089838AEB8A8383E08B83D7
S11303800CC087E089838AEB8A8381E08B8305C074
S113039087E089838AEB8A831B82AE014F5F5F4FBC
S11303A063E088E20E9413010F900F900F90DF9199
S11303B0CF910895EF920F931F93CF93DF93CDB70F
S11303C0DEB767970FB6F894DEBF0FBECDBF0E87BA
S11303D01F87288B398B4A8B5B8B6C8B7D8B8E8B29
S11303E09F8B202F312F37708E2D8295807F8F5CCD
S11303F0A901559547955595479555954795498331
S11304002295220F207E2A831B821C8213FB9927AC
S113041090F912951F7020E4929F100D11241D83F2
S1130420FE017096DE0116969E01285E3F4F919163
S11304309D93E217F307D9F7AE014F5F5F4F6DE06D
S11304400E94130167960FB6F894DEBF0FBECDBFAE
S1130450DF91CF911F910F91EF900895CF93C82F03
S11304600E94200481E090E002C0880F991FCA9581
S1130470E2F780580E9414040E942204CF91089548
S1130480682F8BE20E943D0108958EE00E940101D5
S113049086958770089561E070E002C0660F771F4B
S11304A08A95E2F740E08CE20E94510108959FE0B2
S11304B088E10FB6F894A895809360000FBE9093DE
S11304C0600080E580930F01E0E1F1E08081887FA6
S11304D0826080838081877F808380818F70806841
S11304E0808381E580930501E6E0F1E08081887FE7
S11304F0826080838081877F808380818F70806821
S1130500808384B5826084BD85B5856085BDEEE653
S1130510F0E080818260808383EC87BDE99A1AB819
S11305201BB8549A589A0E9408040E94F9008FE458
S113053093EC0197F1F700C0000082E00E94AE0145
S113054081E20E94400280E00E946B010E949101BE
S11305500E944F0081E00E94580080E00E946100E8
S113056081E00E94890083E00E94750078940FE086
S113057011E0C5E0D1E0A89580E00E9461003299C5
S1130580FECF0E949600B82FA72F962F8827C92E3A
S1130590DA2EEB2EFF24F801C2826D01EE24FF2433
S11305A0C3828B2F9927AA27BB278483158282E0D5
S11305B00E9461003299FECF0E949600B82FA72FA7
S11305C0962F8827C92EDA2EEB2EFF24F801C68237
S11305D06D01EE24FF24C7828B2F9927AA27BB27FE
S11305E08087118681E00E9461003299FECF0E94CB
S11305F09600B82FA72F962F8827C92EDA2EEB2E18
S1130600FF24CA826D01EE24FF24CB828B2F99270D
S1130610AA27BB278C831D8283E00E946100329944
S1130620FECF0E949600B82FA72F962F8827C92E99
S1130630DA2EEB2EFF24CE826D01EE24FF24CF822E
S11306408B2F9927AA27BB278887198681E0809357
S1130650000191CF1F920F920FB60F9211242F9386
S11306603F934F935F936F937F938F939F93AF9336
S1130670BF93EF93FF930E94450290E0FC013197F2
S1130680E730F105F8F4EC5CFF4F0C94240485E0AA
S11306900E944B0217C086E00E944B0213C082E006
S11306A00E944B020FC083E00E944B020BC084E007
S11306B00E944B0207C080E00E944B0203C081E00D
S11306C00E944B02FF91EF91BF91AF919F918F9147
S11306D07F916F915F914F913F912F910F900FBE3A
S11306E00F901F9018951F920F920FB60F9211241E
S11306F0EF920F931F932F933F934F935F936F93B7
S11307007F938F939F93AF93BF93EF93FF93409106
S113071001015091020160910301709104019091D3
S1130720000181E04A3051056105710508F480E05B
S1130730882309F446C081E0911101C080E0882338
S113074009F43FC0E12C00910F0110911001209198
S113075011013091120140911301509114016091E3
S113076015017091160180911701909118010E9452
S1130770DA0180E00E942E02EE24E3940091050148
S1130780109106012091070130910801409109015F
S113079050910A0160910B0170910C0180910D013F
S11307A090910E010E94DA0181E00E942E021092C3
S11307B0010110920201109203011092040110929F
S11307C000018091010190910201A0910301B09177
S11307D004010196A11DB11D8093010190930201B2
S11307E0A0930301B0930401FF91EF91BF91AF91E6
S11307F09F918F917F916F915F914F913F912F9135
S11308001F910F91EF900F900FBE0F901F901895AE
S113081084B1886284B98CB580658CBD8DB58160E6
S11308208DBD229A2A9A08958EBD0DB407FEFDCF80
S113083008958FEF8EBD0DB407FEFDCF8EB50895DC
S11308402A9808952A9A0895EE0FFF1F0590F491AF
S10B0850E02D0994F894FFCF98
S9030000FC
