:100000000C943B000C944D000C941F030C944D0079
:100010000C944D000C944D000C944D000C944D002C
:100020000C944D000C944D000C944D000C944D001C
:100030000C944D000C944D000C9468030C944D00EE
:100040000C944D000C944D000C944D000C944D00FC
:100050000C944D000C944D000C944D000C944D00EC
:100060000C944D000C944D003C03400344034803A2
:100070004C035003540311241FBECFEFD8E0DEBF62
:10008000CDBF21E0A0E0B1E001C01D92AC31B207CC
:10009000E1F70E945F020C9406040C940000519A50
:1000A000529A399A389A3D9A3A983B9A3C9A0895CE
:1000B000882319F0813019F0089544980895449ADE
:1000C0000895813049F028F0823049F0833051F0B2
:1000D00008954198409808954198409A0895419A0A
:1000E00040980895419A409A0895813049F028F047
:1000F000823049F0833051F0089559985A98089504
:1001000059985A9A0895599A5A980895599A5A9A04
:100110000895882319F0813019F0089545980895BD
:10012000459A0895439A089543980895CF92DF928F
:10013000EF92FF920F931F93CF93DF93C7E0D0E02E
:1001400000E0EE24E394F12C0E949200329B08C060
:10015000C7010C2E02C0880F991F0A94E2F7082BE2
:100160000E949400219780F7C7E0D0E010E0EE24D1
:10017000E394F12C0E949200329B08C0C7010C2E20
:1001800002C0880F991F0A94E2F7182B0E9494006E
:10019000219780F7C7E0D0E0F12CCC24C394D12C78
:1001A0000E949200329B08C0C6010C2E02C0880F2C
:1001B000991F0A94E2F7F82A0E949400219780F789
:1001C0000E9492000E949400812F90E0A0E0B0E095
:1001D000902BBA2FA92F982F8827BC01CD016F290A
:1001E000DF91CF911F910F91FF90EF90DF90CF9013
:1001F00008950E94FC0380EC0E94F0030E94FE031D
:100200000895CF93C82F0E94FC0383E00E94F0035F
:100210008C2F0E94F0030E94F503C82F0E94FE035A
:100220008C2FCF910895EF92FF920F931F93CF934E
:10023000DF93C82F162F7A010E94FC0382E00E94F0
:10024000F0038C2F0E94F003112371F0E70111508D
:10025000012F10E00F5F1F4F0E0D1F1D89910E948F
:10026000F003C017D107D1F70E94FE03DF91CF91B1
:100270001F910F91FF90EF900895CF93DF93D82FA8
:10028000C62F0E94FC0382E00E94F0038D2F0E9483
:10029000F0038C2F0E94F0030E94FE03DF91CF91A8
:1002A00008951F93CF93DF93182FD62FC42F0E944A
:1002B000FC0385E00E94F003812F0E94F0038D2F44
:1002C0000E94F0038C2F0E94F0030E94FE03DF9136
:1002D000CF911F9108958230A9F028F4882341F02E
:1002E000813059F00895833091F08430A9F0089559
:1002F00060E08FE00E943D01089560E28FE00E947F
:100300003D01089560E48FE00E943D01089560E69C
:100310008FE00E943D01089560E88FE00E943D015A
:1003200008958EE00E940101807E803469F028F4F7
:10033000882391F0803231F00DC0803639F080385A
:1003400039F008C081E0089582E0089583E00895BF
:1003500084E008958FEF089580E00895CF93DF93B0
:1003600000D01F92CDB7DEB7813059F018F082303F
:1003700079F013C087E089838AEB8A8383E08B83DB
:100380000CC087E089838AEB8A8381E08B8305C078
:1003900087E089838AEB8A831B82AE014F5F5F4FC0
:1003A00063E088E20E9413010F900F900F90DF919D
:1003B000CF910895CF92EF92FF920F931F93CF9317
:1003C000DF93CDB7DEB769970FB6F894DEBF0FBEE7
:1003D000CDBFEE86EF2DFF86088B198B2A8B3B8BCA
:1003E0004C8B5D8B6E8B7F8B888F998F2E2D9F2DE5
:1003F0003E2F37708C2D8295807F8F5CA90155959B
:100400004795559547955595479549832295220FD0
:10041000207E2A831B821C82F3FA222720F99295E0
:100420009F7030E4239F900D11249D83FE017096F0
:10043000DE0116969E01285E3F4F91919D93E21733
:10044000F307D9F7AE014F5F5F4F6DE00E941301D4
:1004500069960FB6F894DEBF0FBECDBFDF91CF9186
:100460001F910F91FF90EF90CF900895CF93C82FD9
:100470000E94FC0381E090E002C0880F991FCA959A
:10048000E2F780580E94F0030E94FE03CF91089586
:10049000682F8BE20E943D0108958EE00E940101C9
:1004A00086958770089561E070E002C0660F771F3F
:1004B0008A95E2F740E08CE20E94510108959DE0A8
:1004C00088E10FB6F894A895809360000FBE9093D2
:1004D000600080E580930001E1E0F1E08081887FA9
:1004E000826080838081877F808380818F70806835
:1004F000808381E580930C01EDE0F1E08081887FCD
:10050000826080838081877F808380818F70806814
:10051000808384B5826084BD85B5856085BDEEE647
:10052000F0E080818260808383EC87BDE99A1AB80D
:100530001BB8549A589A0E94E4030E94F9008FE471
:1005400093EC0197F1F700C0000082E00E94AE0139
:1005500081E20E94480280E00E946B010E949101AA
:100560000E944F0081E00E94580080E00E946100DC
:1005700081E00E94890083E00E947500789400E089
:1005800011E0CCE0D1E0A89580E00E9461003299B2
:10059000FECF0E949600F8016283C72ED82EE92E66
:1005A000FF24C3826C01EE24FF24C482892F992783
:1005B000AA27BB27858382E00E9461003299FECF83
:1005C0000E949600F8016683C72ED82EE92EFF24DC
:1005D000C7826C01EE24FF24C086892F9927AA27A1
:1005E000BB27818781E00E9461003299FECF0E9483
:1005F00096006A83C72ED82EE92EFF24CB826C0189
:10060000EE24FF24CC82892F9927AA27BB278D832C
:1006100083E00E9461003299FECF0E9496006E83B3
:10062000C72ED82EE92EFF24CF826C01EE24FF24A2
:10063000C886892F9927AA27BB278987A4CF1F920D
:100640000F920FB60F9211242F933F934F935F9306
:100650006F937F938F939F93AF93BF93EF93FF938A
:100660000E944D0290E0FC013197E730F105F8F46B
:10067000EC5CFF4F0C94000485E00E94530217C00D
:1006800086E00E94530213C082E00E9453020FC012
:1006900083E00E9453020BC084E00E94530207C013
:1006A00080E00E94530203C081E00E945302FF9148
:1006B000EF91BF91AF919F918F917F916F915F91DA
:1006C0004F913F912F910F900FBE0F901F90189553
:1006D0001F920F920FB60F921124CF92EF92FF92BA
:1006E0000F931F932F933F934F935F936F937F933A
:1006F0008F939F93AF93BF93EF93FF93C12CE090A1
:100700000001F0900101009102011091030120917C
:10071000040130910501409106015091070160915B
:1007200008017091090180910A0190910B010E94CA
:10073000DA0180E00E943602CC24C394E0900C01E0
:10074000F0900D0100910E0110910F012091100108
:1007500030911101409112015091130160911401E7
:100760007091150180911601909117010E94DA0194
:1007700081E00E9436028091180190911901A091A8
:100780001A01B0911B010196A11DB11D80931801A2
:1007900090931901A0931A01B0931B01FF91EF915F
:1007A000BF91AF919F918F917F916F915F914F9189
:1007B0003F912F911F910F91FF90EF90CF900F904D
:1007C0000FBE0F901F90189584B1886284B98CB5C4
:1007D00080658CBD8DB581608DBD229A2A9A089561
:1007E0008EBD0DB407FEFDCF08958FEF8EBD0DB405
:1007F00007FEFDCF8EB508952A9808952A9A089588
:10080000EE0FFF1F0590F491E02D0994F894FFCFAF
:00000001FF
